:10000300C2A0C2A1C2A4E4F517F5181201E98F1624
:10001300E51660F7E50D450C6003020129D3EF9463
:100023000A748094805046D2A47F647E0012058CAB
:10003300C2A4C3E50B9404E50A94005030AE14AF98
:10004300157C007D0A12039F8E148F15E51675F03B
:100053000A84E5F02515F515E43514F514050BE5CB
:100063000B7002050A050FE50F7002050EE5166415
:100073000B60030200FDD2A47F64FE12058CC2A4B0
:10008300E5134512703AE515B4D220E514B4041B08
:10009300E4F514F515F50AF50BC2A0D2A17FD07EC5
:1000A3000712058CE4F50EF50F8015E4F514F5152C
:1000B300F50AF50BF50EF50F0518E518700205178F
:1000C300E513640145127032E515B50916E514B55B
:1000D3000811D2A1E4F514F515F50AF50BF50EF5A3
:1000E3000F8017C2A1E4F514F515F50AF50BF50E0B
:1000F300F50F0518E51870020517E516640C70175F
:10010300D2A47F64FE12058CC2A4E4F514F515F5A0
:100113000AF50BF50EF50FE516640E7009F508F5F3
:1001230009F50C750D02E50D6402450C600302012F
:10013300B1E516FB7A00D3940A74809480503BC3D4
:10014300E5119404E51094005030AE08AF097C002B
:100153007D0A12039F8E088F09E51675F00A84E560
:10016300F02509F509E43508F5080511E5117002D4
:100173000510050FE50F7002050EEB640B4A701CAA
:10018300D2A47F64FE12058CC2A4E4F510F511F528
:100193000CF50DF50EF50FF512751301E516640C4C
:1001A300700CF508F509F510F511F50EF50FE516C8
:1001B300640D600302000ED2A47F64FE12058CC29C
:1001C300A4E50D450C70047F0180027F00750C00CF
:1001D3008F0DE50D6401450C7007D2A0C2A102008A
:0601E3000EC2A002000E96
:10058C00EF1FAC0670011E4C600A7D027CEFDCFE96
:04059C00DDFC80EC16
:0105A0002238
:0605B500C2A68F80D2A750
:0805BB007F027EEFDEFEDFFC93
:0105C3002215
:0A05D000C2A51205B5C2A70205BBC3
:10055000CFCDCFCECCCE1203B17C007D0A1203B139
:04056000ED2430FF57
:0A056400D2A51205B5C2A70205BB1F
:10056E00AE07EEFB7A0064017004ED148009EB64B3
:0E057E00024A7009ED243F4480FF1205D0228E
:1005A1007F381205D07F0C1205D07F061205D07F4F
:0405B100010205D06E
:0A05DA00AC0312056EAF04020564C5
:06052D008B338A3489358E
:1005330012056EE4FDAB33AA34A9358D82758300B1
:0C054300120372FF60061205640D80E9CF
:01054F002289
:0A04D800EF24FFFDEE34FFFC7F0A65
:0804E2008E2F8F308C318D321A
:1004EA007F017E00E4FBEBC39532E5316480F8744A
:0E04FA008098500AAC2FAD3012039F0B80E8A3
:0105080022D0
:040509008A228B2394
:10050D0012056EAA24EAFF7E00D3940074809480B5
:0F051D00400D1204D8AC22AD231205501A80E60F
:01052C0022AC
:040451008B828A838D
:1004550012056EC3E58364809480400D7F2B1205E1
:100465006485831E85821F80107F2D120564C3E479
:100475009582F51FE49583F51EAA1DEAFF7E00D33C
:10048500940074809480400D1204D8AC1EAD1F12E8
:0504950005501A80E68D
:01049A00223F
:040406008A278B288E
:10040A0012056EAA29EAD39400748094804037EAD0
:10041A0024FFFDE434FFFC7F107E001204E2AC27C7
:10042A00AD28CFCDCFCECCCE1203B1EF540FFEC341
:10043A00940A74809480EE5004243080022437FF9A
:06044A001205641A80BFD8
:010450002289
:04049B008A2C8B2DEF
:10049F0012056EAA2EEAFF7E00D39400748094801A
:1004AF004026EF24FFFDEE34FFFC7F021204E2AC86
:1004BF002CAD2DCFCDCFCECCCE1203B1EF54012426
:0804CF0030FF1205641A80CD14
:0104D7002202
:1001E900E4F5367590FFC2902094137F14FE120532
:1001F9008C3094FD7F147E0012058C753601209594
:10020900147F147E0012058C3095FD7F147E001238
:10021900058C7536042096147F147E0012058C30E7
:1002290096FD7F147E0012058C7536072097147F82
:10023900147E0012058C3097FD7F147E0012058C08
:1002490075360F7590FFC2912094147F147E0012A9
:10025900058C3094FD7F147E0012058C75360220C2
:1002690095147F147E0012058C3095FD7F147E0055
:1002790012058C7536052096147F147E0012058CA4
:100289003096FD7F147E0012058C75360820971470
:100299007F147E0012058C3097FD7F147E001205B5
:1002A9008C75360A7590FFC2922094147F147E00D3
:1002B90012058C3094FD7F147E0012058C7536036F
:1002C9002095147F147E0012058C3095FD7F147ED5
:1002D9000012058C7536062096147F147E001205CF
:1002E9008C3096FD7F147E0012058C753609209797
:1002F900147F147E0012058C3097FD7F147E001246
:10030900058C75360C7590FFC2932094147F147E6A
:100319000012058C3094FD7F147E0012058C753611
:100329000B2095147F147E0012058C3095FD7F14E7
:100339007E0012058C75360D2096147F147E0012EE
:10034900058C3096FD7F147E0012058C75360E20C3
:1003590097147F147E0012058C3097FD7F147E0060
:0803690012058C753610AF3649
:010371002269
:030000000205C432
:0C05C400787FE4F6D8FD75813602000354
:10037200BB010CE58229F582E5833AF583E0225040
:1003820006E92582F8E622BBFE06E92582F8E2228A
:0D039200E58229F582E5833AF583E49322A4
:10039F00EF8DF0A4A8F0CF8CF0A428CE8DF0A42E72
:0203AF00FE222C
:1003B100BC000BBE0029EF8DF084FFADF022E4CC30
:1003C100F875F008EF2FFFEE33FEEC33FCEE9DECF9
:1003D100984005FCEE9DFE0FD5F0E9E4CEFD22ED3F
:1003E100F8F5F0EE8420D21CFEADF075F008EF2F89
:1003F100FFED33FD4007985006D5F0F222C398FD7A
:050401000FD5F0EA2216
:00000001FF
